:04032C0075B2832201
:060326001203030202D1E4
:08017C008F0D8E0C8D0B8C0A17
:10018400780A74FF12010EEC4D4E4F6039E4F511FC
:10019400F510F50FF50EE47FE07E2EFDFCAB11AA01
:1001A40010A90FA80EC31200E350D5E4FAF9F8E53C
:1001B400112401F511EA3510F510E9350FF50FE8B2
:0601C400350EF50E80D09F
:0101CA002212
:10012C0053D9BF12032C1203261202F4E4F508AFC4
:10013C0008E4FCFDFEFB7A007908F511751201123A
:10014C000003AF08E4FCFDFEFB7A00790975110190
:10015C001201CBAD097F011202167F0A7E007D00D1
:10016C007C0012017C0508E508C3941040C180BCDA
:0D02A4007F017E001202B1D2937F017E0027
:0B02B100EF1FAC0670011E4C70F6221F
:0B024200AF0DAE0CAD0BAC0A1200F9C2
:02024D00AD07FB
:10024F001202A4E4FBC2931202ADED33929212029A
:09025F00A4ED25E0FD0BBB08EC49
:010268002273
:10026900D293E4FDFBC2931202ADEB25E0FB30957E
:0D027900034303011202AB0DBD08EAAF0301
:010286002255
:1002BC007F01EF30E00EC2947F0512024D120269ED
:0402CC00D29480EE5A
:0102D000220B
:0A031C00C2947F0612024DD2942213
:0D03030043A53EE4F5E175E2405390FD2274
:1001CB008F0D8E0C8D0B8C0A8B0E8A0F8910C2949F
:1001DB007F0312024D78101202427808120242AFCE
:1001EB000D12024DAF111511EFD39400401A1202EC
:1001FB00AD120269AB0E0510E510AA0F7002050FC8
:0B020B0014F9EF1200D180DCD2942225
:0E0003008F0D8E0C8D0B8C0A8B0E8A0F8910C0
:10001100D3E5129400E5116480948050030200B787
:10002100E50DFFE49FF51474019400F513C3E51287
:100031009514E5136480F8E51164809850068511E4
:100041001385121412031CC2947F0212024DAF0DCC
:10005100AE0CAD0BAC0A78101200F912024DAF0DC7
:10006100AE0CAD0BAC0A78081200F912024DAF0DBF
:1000710012024DC3E5129514F512E5119513F51110
:10008100E5141514AE1370021513D39400EE6480B9
:100091009480401A1202ADAB0E0510E510AA0F7044
:1000A10002050F14F91200B8FF12024D80D2D2944A
:0600B1001202BC02001166
:0100B7002226
:0F02F40012031CC2947FC712024DD2940202BCA7
:1002E400C0F9A4B0999282F880908883C6A1868EC2
:10028700C2A4E4FEC293EF30E704D2928002C29286
:0C029700EF25E0FFD2930EBE08EAD2A4CF
:0102A3002238
:1002D10043A61F43A50EE4F5E175E24053A0F05398
:0302E10090FD226B
:10021600C2A0C2A1C2A2C2A3EF30E002D2A0EF30B8
:10022600E102D2A1EF30E202D2A2EF30E302D2A382
:0C023600ED9002E493FF1202877F01228A
:03000000020310E8
:0C031000787FE4F6D8FD75811402012C02
:1000B800BB010689828A83E0225002E722BBFE0246
:0900C800E32289828A83E4932279
:1000D100BB010689828A83F0225002F722BBFE010E
:0200E100F32208
:1000E300EB9FF5F0EA9E42F0E99D42F0EC6480C894
:0600F30064809845F02234
:1000F900E8600FECC313FCED13FDEE13FEEF13FFE5
:03010900D8F12208
:10010C007401FF3395E0FEFDFC080808E6CF2FF6DE
:10011C0018E6CE3EF618E6CD3DF618E6CC3CF622B7
:00000001FF
